:10000000B0630220E5470000E1470000E14700003F
:10001000E1470000E1470000E14700000000000068
:10002000000000000000000000000000D58E00006D
:10003000E1470000000000005D8F0000BD8F000060
:10004000E1470000E1470000E1470000E147000010
:10005000E1470000E1470000E1470000E147000000
:10006000E1470000E1470000E1470000E1470000F0
:10007000E1470000E1470000E1470000E1470000E0
:10008000E1470000E1470000E1470000E1470000D0
:10009000E1470000E1470000E1470000E1470000C0
:1000A000E1470000E1470000E1470000E1470000B0
:1000B000E1470000E1470000E1470000E1470000A0
:1000C000E1470000E1470000E1470000E147000090
:1000D000E1470000E1470000E1470000E147000080
:1000E000E1470000E14700000000000000000000C0
:1000F00000000000717A0000E1470000E1470000C5
:10010000E1470000E1470000E1470000E14700004F
:10011000E1470000E1470000E1470000E14700003F
:10012000E1470000E1470000E1470000E14700002F
:10013000E1470000E1470000E1470000E14700001F
:10014000E1470000E1470000E1470000E14700000F
:10015000E1470000E1470000E1470000E1470000FF
:10016000E1470000E1470000E1470000E1470000EF
:10017000E1470000E1470000E1470000E1470000DF
:10018000E1470000E1470000E1470000E1470000CF
:1001900065760000E1470000E1470000E14700000C
:1001A000E1470000E1470000E1470000E1470000AF
:1001B000E1470000E1470000E1470000E14700009F
:1001C000E1470000E1470000E1470000E14700008F
:1001D000E1470000E1470000E1470000E14700007F
:1001E000E1470000E1470000E1470000E14700006F
:1001F000E1470000E1470000E1470000E14700005F
:10020000E1470000E1470000E1470000E14700004E
:10021000E1470000E1470000E1470000E14700003E
:10022000E1470000E1470000E1470000E14700002E
:10023000E1470000E1470000E1470000E14700001E
:10024000E1470000E1470000E1470000E14700000E
:10025000E1470000E1470000E1470000E1470000FE
:10026000E147000010B5054C237833B9044B13B1B6
:100270000448AFF300800123237010BD80000020EC
:1002800000000000ACAB000008B5034B1BB10349F4
:100290000348AFF3008008BD000000008400002088
:1002A000ACAB000070B5074E074D33680446002123
:1002B0009868A847336800215868A847034B1C601A
:1002C00070BD00BF18000020ED9500009C000020CC
:1002D000044A0346106818B18AB21946024B1847FF
:1002E000704700BF9C000020BD530000044A034635
:1002F000106818B18AB21946024B1847704700BF00
:100300009C0000208D53000070B51546026C044619
:100310006AB906680EB1002504E04068164B98479C
:1003200066600546A36B0133A363284670BD134B7B
:100330005DB980689847A368226C13446268A36023
:100340009342E8D32368A360ECE7C0689847226C27
:10035000E36851429B1A2268E36093423EBF6368A0
:100360005B18E360022DD6D1A36B002BD3D0A36B17
:10037000013BA363CFE700BF11850000A5940000F7
:1003800037B5446D01900A4644B94FF0800383F3BA
:100390001188BFF36F8FBFF34F8FFEE7A16BE36B45
:1003A000994208D34FF0800383F31188BFF36F8F16
:1003B000BFF34F8FFEE7A16B8B4217D90C4B01A9FE
:1003C00020469847A36C013305460BD1636A33B1CD
:1003D000084B04F124009847002818BF012528463F
:1003E00003B030BDA36C0133A364F8E70025F6E742
:1003F0000903000041830000034610B41A6C08464C
:100400006AB1DC68596814448C4228BF1968DC6002
:1004100028BFD960D9685DF8044B024B18475DF8D6
:10042000044B7047A59400002DE9F0411F4E204D6C
:10043000204FDFF888800446B047A36C002B14DC03
:100440004FF0FF33A3641C4D194FDFF86880A847B5
:10045000B04704F11006636C002B1BDC4FF0FF3338
:1004600063642B46BDE8F0411847636D4BB1002132
:100470002046C047012800D1B847A36C013BA364C4
:10048000DBE7636A002BDBD004F12400A8470028D7
:10049000F3D0F1E72369002BE0D03046B84700B134
:1004A000C047636C013B6364D5E700BFF58E000075
:1004B0004183000065840000358F00008103000047
:1004C00038B50D46044640B94FF0800383F31188D8
:1004D000BFF36F8FBFF34F8FFEE7184B9847D4E9F8
:1004E0000F312268A2604B43D0185B1A134460603E
:1004F000E36000204FF0FF33A0636364A364ADB9F1
:1005000023697BB10E4B04F110009847012809D1F3
:100510004FF0E0234FF08052C3F8042DBFF34F8F0C
:10052000BFF36F8F074B9847012038BD04F11000CF
:10053000054DA84704F12400A847F3E7F58E000015
:1005400041830000358F0000991D0000F8B50D466D
:100550001746064640B94FF0800383F31188BFF376
:100560006F8FBFF34F8FFEE779B148430130114BD6
:1005700058309847044650B94FF0800383F31188F0
:10058000BFF36F8FBFF34F8FFEE70846EFE775B1FC
:1005900000F158032360C4E90F65074B0121204691
:1005A0009847002384F8507063652046F8BD0346E1
:1005B000F0E700BF9D1C0000C104000010B50C4610
:1005C00040B94FF0800383F31188BFF36F8FBFF3FF
:1005D0004F8FFEE7884208D24FF0800383F31188E3
:1005E000BFF36F8FBFF34F8FFEE7084B022200214E
:1005F000984708B1846310BD4FF0800383F31188DE
:10060000BFF36F8FBFF34F8FFEE700BF4D050000B4
:100610002DE9F04F85B0894601921E46044640B947
:100620004FF0800383F31188BFF36F8FBFF34F8FB9
:10063000FEE751B9036C43B14FF0800383F3118897
:10064000BFF36F8FBFF34F8FFEE7022E0BD1E36B2B
:10065000012B08D04FF0800383F31188BFF36F8F15
:10066000BFF34F8FFEE7464B9847804650B9019B3A
:1006700053B14FF0800383F31188BFF36F8FBFF343
:100680004F8FFEE74FF00008DFF81CA13D4FD34627
:1006900041E0636A23B13C4B04F1240098474DE0EC
:1006A00000284DD1B847012005B0BDE8F08F019D6D
:1006B00015B9B8470020F7E7B8F1000F02D1334B66
:1006C00002A89847B847324BDFF8E080314D984791
:1006D000D847636C013304BF00236364A36C013308
:1006E00004BF0023A364B8472B4B01A902A8984775
:1006F000002840D1D847A26BE36B9A422BD1B84770
:100700000199264B04F1100098472046C047A8479E
:1007100030B34FF00108D047A26BE36B9A4201D38C
:10072000022EC4D11E4B3246494620469847636D7F
:10073000002BAED01B4B3146204698470128B1D143
:100740004FF0E0234FF08052C3F8042DBFF34F8FDA
:10075000BFF36F8FA6E7B8472046C047A847D8E742
:100760004FF0E0234FF08052C3F8042DBFF34F8FBA
:10077000BFF36F8FCDE72046C047A8479AE700BF79
:1007800075840000358F000041830000C1830000A4
:10079000257F000039800000E98300008982000085
:1007A0000903000081030000F58E00002904000009
:1007B0002DE9F0410F4616461D46044640B94FF05C
:1007C000800383F31188BFF36F8FBFF34F8FFEE772
:1007D00051B9036C43B14FF0800383F31188BFF329
:1007E0006F8FBFF34F8FFEE7022D0BD1E36B012B11
:1007F00008D04FF0800383F31188BFF36F8FBFF3EE
:100800004F8FFEE71D4B9847EFF311884FF08003A1
:1008100083F31188BFF36F8FBFF34F8FA26BE36B2E
:100820009A4201D3022D26D1154B2A46394620463D
:100830009847A36C01331AD1636D3BB1114B294624
:100840002046984701280AD001200CE0636A002B5B
:10085000FAD00D4B04F1240098470028F4D0002E64
:10086000F2D00120306088F31188BDE8F081A36CDC
:100870000133A364E8E70020F5E700BFFD90000026
:1008800009030000810300004183000070B50D469C
:10089000044640B94FF0800383F31188BFF36F8F94
:1008A000BFF34F8FFEE7036C43B14FF0800383F338
:1008B0001188BFF36F8FBFF34F8FFEE7036853B903
:1008C000436843B14FF0800383F31188BFF36F8F08
:1008D000BFF34F8FFEE71B4B9847EFF311864FF0A6
:1008E000800383F31188BFF36F8FBFF34F8FA26B29
:1008F000E36B9A4223D2A36B0133A363A36C01334E
:1009000019D1636D3BB1104B002120469847012857
:100910000AD001200CE0636A002BFAD00B4B04F1E3
:10092000240098470028F4D0002DF2D00120286040
:1009300086F3118870BDA36C0133A364E9E700203E
:10094000F6E700BFFD900000810300004183000036
:100950002DE9F04F85B0884601929946044640B98A
:100960004FF0800383F31188BFF36F8FBFF34F8F76
:10097000FEE751B9036C43B14FF0800383F3118854
:10098000BFF36F8FBFF34F8FFEE7494B9847074682
:1009900050B9019B4BB14FF0800383F31188BFF333
:1009A0006F8FBFF34F8FFEE70027DFF834B1414D63
:1009B000DA4651E0636AE6602BB13F4B04F1240054
:1009C0009847002865D1A847012005B0BDE8F08F01
:1009D000019E16B9A8470020F7E717B9374B02A8C0
:1009E0009847A847364B374F374E9847D047636CE8
:1009F000013304BF00236364A36C013304BF0023ED
:100A0000A364A847314B01A902A8984700284BD1FD
:100A1000D047A36BDBB9A847236823B9D0476068E8
:100A20002B4B9847A84701992A4B04F1240098477B
:100A30002046B847B04770B94FF0E0234FF08052DE
:100A4000C3F8042DBFF34F8FBFF36F8F03E0A847A8
:100A50002046B847B0470127D847A36B002BB7D033
:100A60001D4BE668414620469847B9F1000FA1D1D9
:100A7000A36B013BA363236813B9184B98476060CD
:100A80002369002B9FD00C4B04F1100098470128DC
:100A900099D14FF0E0234FF08052C3F8042DBFF3FB
:100AA0004F8FBFF36F8F8EE72046B847B04792E76E
:100AB00075840000358F000041830000C183000071
:100AC000257F00002904000039800000E983000030
:100AD0009584000089820000F90300009D850000D4
:100AE000F58E000040B94FF0800383F31188BFF307
:100AF0006F8FBFF34F8FFEE7004B1847511D00006B
:100B000070B504460E4B0D4616469847636C01338C
:100B100004BF00236364A36C013304BF0023A364F8
:100B2000084B9847A36B2BB9074B3246294604F173
:100B3000240098472046054BBDE87040184700BF89
:100B4000F58E0000358F0000E582000029040000CA
:100B5000044A1168034609B9034911601068034447
:100B600013607047A0000020B06302204FF0FF30F8
:100B700070474FF400534B600020704701207047CE
:100B8000002070472DE9FF411B4B0446884616465E
:100B90002421002201209847054650B36768446825
:100BA000002323716371A371E37184F80080667080
:100BB0003B4604F1080207F11C0153F8040B42F80C
:100BC000040B8B42F9D1002669890C4BA670E670A4
:100BD000204698476080FB6803930123CDE90063BA
:100BE000074CFF2303AA31462846A047054B284659
:100BF000984704B0BDE8F081D9300000A974000026
:100C000071560000813000002DE9F04F4668454FD5
:100C10003578DFF8348105F00F05AD0087B0C5F1F8
:100C2000000A0FFA8AFA059151460446B84798B966
:100C30002389032B10D963681B78082B0CD1DFF8AC
:100C400000B10599DBF80000374A00F0F009904741
:100C500010B9B9F1E00F05D12046434607B0BDE811
:100C6000F04F18472389072BF6D9304B2046984779
:100C70000028F1D1242120462DB2B84700284AD0BF
:100C800029462046B84702460028E5D12189284B4D
:100C90000220984781460028DED0264A2146904708
:100CA0000028D9D151464846D9F80460B8470028F1
:100CB000D2D12046C0474C46DBF800306268F36072
:100CC0001D4B1B6833610023137053884FF6F67178
:100CD0008B428CBF093308339BB253804FF0FF0A1D
:100CE0000023B372F3721421144B86F808A0304627
:100CF0009847294670812046B84702460028ABD164
:100D0000059B02930123CDE900030D490D4D534688
:100D10002046A847A0E76FF023012046B8470028E7
:100D2000CAD099E729300000AF7A0000B9740000FA
:100D3000D93000008D320000B4100120A9740000E9
:100D4000B010012085550000813000000A46014B9B
:100D500003211847850B00000A46014B0B21184759
:100D6000850B000040BA80B2704740BA80B270472D
:100D700000BA7047004B1847710D000010B50446CB
:100D800060B1006820B1064B98470023C4E90033E6
:100D90002146044BBDE810400620184710BD00BF97
:100DA00081300000494B000010B5044600B9FEE751
:100DB000006808B1024B98470023C4E9003310BD16
:100DC0008130000070B50E461546044600B9FEE7B6
:100DD000006808B1094B98470021094B02220846D8
:100DE0009847206018B960604FF0FF3070BD4660D2
:100DF0000581458160600020F8E700BF8130000078
:100E0000D930000010B50549054B08469847BDE8A4
:100E1000104002490348044B0022184720A5002037
:100E20009D4B0000A4000020D50F0000004B184788
:100E3000050E00002DE9F8430E461546044618B18C
:100E400029B3101E18BF01201249134B134FF12272
:100E500098470834B9462046B8470028FBD0DFF849
:100E600044800027F15D2046C0472046C84700283F
:100E7000FBD00137BD42F5D8002D094E08BF012532
:100E80002046B0470028FBD02846BDE8F883084636
:100E9000DAE700BF3CA70000A97A0000EB6D000074
:100EA000F56D0000DD6D00002DE9F8430E46154696
:100EB000044618B1E9B1101E18BF01200E490F4BAE
:100EC000DFF83C90DFF83C804FF4867298470027AB
:100ED00008342046C8470028FBD02046C047F055BC
:100EE0000137BD42F5D8002D14BF28460120BDE8CA
:100EF000F8830846E2E700BF3CA70000A97A00009B
:100F0000FF6D0000E36D000038B50D46044610B1DA
:100F1000081E18BF01200749074B34229847074B8A
:100F2000294604F10800984718B9054B6360054B42
:100F3000236038BD3CA70000A97A00009D6D000029
:100F4000A90E0000350E000010B50446003818BF89
:100F500001200549054B5322984704F10800044B32
:100F60009847002010BD00BF3CA70000A97A0000F0
:100F7000C96D000008B503460846114623B9044B65
:100F8000984740EAE07008BD4FF0FF30FBE700BF34
:100F9000D1020000C30707D5044B054A1A6243F685
:100FA000FD7259681142FCD1704700BF001C00401F
:100FB0000101010010B5044C044B2046984720461F
:100FC000034BBDE81040184714A50020490F00004E
:100FD000A502000070B50D461646044620B159B171
:100FE0001F2A8CBF002001200449054B2A22984764
:100FF0002560A680002070BD0846F5E758A70000D0
:10100000A97A000037B50D46044620B1006810B13A
:10101000081E18BF01200949094BA9229847A18839
:101020002068084C0DF106030122A04720B9BDF845
:101030000630C3F380032B7003B030BD58A7000007
:10104000A97A0000E14C000070B5144B04460A2058
:101050000E461546984740B111494460002303608D
:101060000B68C0E902650BB9086070BD5A68A242FE
:1010700003D9121B5A600360F6E75A6841681E469E
:101080001B688D1A45602BB15C68A542F5D22244DD
:10109000521A5A6003603060E7E700BF2D4B000032
:1010A000AC000020084B5A6862B9084A126812B9AD
:1010B000074A126832B101225A600649064B0022E3
:1010C000FA201847704700BFAC000020FC48012000
:1010D00004490120DD10000049100000094B10B543
:1010E0009847094B1B6813B9084B1B6833B1BDE81F
:1010F00010400749074B0022FA201847064A536060
:1011000010BD00BFB9610000FC4801200449012066
:10111000DD10000049100000AC00002010B5074CA5
:10112000074900224FF47A70A04723460549BDE8DD
:101130001040002241F28830184700BF49100000DB
:101140006D1100004911000010B5054B9847BDE82E
:1011500010400449044B002241F28830184700BF78
:10116000614E0000491100004910000010B5054B08
:101170009847BDE810400449044B00224FF47A70B0
:10118000184700BFB92A00006D1100004910000087
:1011900070B4104D0C462968D1B100228B6883428F
:1011A0000B6812D1CE68A6420FD162B92B600B68D2
:1011B0001BB15A68486802445A6070BC064B0A204A
:1011C00018471946EAE71360F1E70A46002BF8D101
:1011D00070BC7047AC000020494B00002DE9F0477F
:1011E000154C164F05460E4622682AB93146284648
:1011F000124BBDE8F047184752686AB92168D1E937
:1012000002890B6823600A200D4B9847B8F1000F44
:10121000EAD04846C047E7E731462846B847421C6F
:101220000346EBD02268506898428BBFC01A002357
:1012300050605360BDE8F087AC000020E56B000013
:10124000494B00002DE9F041836A46780172002283
:1012500004460D46426042700BB104219847A36AD0
:101260001BB10022114620469847A36A1BB10022F9
:1012700002212046984704F11008144F4046B84711
:1012800018B1134B00214046984704F1140840461A
:10129000B84718B10E4B002140469847012E02D0A6
:1012A000033E012E0FD8237F23F0040213F0040322
:1012B000227708D1626A157104F10C006362BDE8FF
:1012C000F041044B1847BDE8F08100BF716C00008D
:1012D0007D6B0000AD6A00002DE9F7431746BDF8AD
:1012E00028901D46064628B100F11008174B4046CD
:1012F000984728B9164B384603B0BDE8F043184765
:10130000144B0620984704460028F3D0C0E9007724
:1013100005B12D683A89104BA5602146A4F80C90C0
:10132000404601929847019A014628B10B4B20464E
:1013300003B0BDE8F0431847B36A23B1304603B0A9
:10134000BDE8F043184703B0BDE8F083716C0000BE
:10135000813000002D4B00007D6B00007D0D0000F2
:1013600007B50C4B014640680190984701980A491F
:101370000A4B984701980A490A4B984701980A492D
:101380000A4B042298470A4901980A4B03B05DF8BA
:1013900004EB1847A55B0000C9140000A95B00001E
:1013A00049160000AF5B000099160000BD5B00000D
:1013B00045120000B35B0000436A2DE9F0411D7A3D
:1013C000032D044605F0010705F0020603D140682D
:1013D000314B002198476068037E012B0AD12F4BC7
:1013E00000219847032D1DD060682D4B32463946A9
:1013F00098471AE037B12B4B002198476068274B7C
:10140000002198471EB16068274B00219847032DA3
:10141000EAD16068254B0021042298476068244B7C
:10142000002198476068234B984710BB636A032DDF
:101430001871606260700DD1A36A60601BB10246D2
:10144000042120469847A36A33B100221146204662
:10145000984701E0002FF6D12EB1A36A1BB10022FC
:1014600002212046984704F10C00134BBDE8F041DF
:101470001847606811490C4B9847606810490B4B3E
:101480000422984760680F49094B98476068024BEF
:101490002146BDE8F0411847A55B0000B95B00009C
:1014A000E9610000A95B0000AF5B0000BD5B0000CC
:1014B000B35B0000A1600000AD6A000049160000A7
:1014C00099160000451200002DE9F843884615469C
:1014D0001F46064650B300F11009174B484698477F
:1014E000044660B91DB900242046BDE8F883404693
:1014F0002989124B9847124B28469847F4E796F9EA
:1015000008300933A8BF377275B12F890D4B2946B2
:1015100048469847044660B9B36A002BE3D00146B9
:101520003A4630469847DFE72F46EFE76FF005046D
:10153000DAE74FF0FF34D7E7716C0000F95A00008A
:10154000813000007D6B00002DE9F0410446406AC7
:10155000267F037C256A816803F0040206F00206F8
:101560001643C2686068521BB2F5803F2944B0F848
:1015700066502ABF4FF6FF7292B243F002039542C3
:1015800030D21EB125B96FF006070AE043F002031E
:101590002A4F2A46B847431CDBB2012B07463ED8E8
:1015A00016B3636ADB689D421ED2A36A1BB12A464A
:1015B000032120469847237F43F01003237737BB4E
:1015C000226A636A1544DA682562954200D01EB12A
:1015D000DD600023236201266068194B98470EBB2B
:1015E000BDE8F0811546D3E76368B3F8661040F6AE
:1015F0006732914203D9B3F86830042BDFD9A36A6C
:10160000002BDCD02A46032120469847D7E77B1CD5
:1016100005D126B960680A4BBDE8F0411847636AF6
:101620000022DA60636A1F7100236362637004F151
:101630000C00044BBDE8F041184700BF991F0000A3
:1016400041240000AD6A000038B54378012B044600
:10165000154619D10E4B984763689BB1B3F86610D5
:1016600040F6673291420DD9B3F86830042B09D89F
:10167000237F23F010032377A36A1BB12A4602219C
:1016800020469847002038BD042BE5D1014BE2E706
:1016900049150000B913000010B54378012B04462A
:1016A0001BD1104B9847237FDA0614D5626892B19C
:1016B000B2F8660040F6673188420CD9B2F868206B
:1016C000042A08D823F010032377A36A1BB1002251
:1016D000022120469847002010BD042BE3D1024B85
:1016E000E0E700BF49150000B913000070B5002302
:1016F000056803716B680446BBB92B7803F0F003EF
:10170000102B18D0202B20D1114B984722686860ED
:10171000506810B9FF23237107E013780D49222B7D
:1017200004BF012303740C4B984720680B4BBDE8A2
:1017300070400C3018470A4B98476860206843682F
:10174000002BE7D0074B9847EFE7FA23E3E700BF0A
:10175000A9470000D912000071470000AD6A0000DF
:101760000964000061130000F8B5174B0546072017
:101770000E469847044620B3002100F10C07017281
:1017800005704160114B3846984740B91021104B05
:1017900060189847054640B10E4B38469847214699
:1017A0000D4B0720984700240BE00C4B04F114006C
:1017B0009847C4E909564FF0FF336570A36125626D
:1017C00025772046F8BD00BF2D4B00003D6A000084
:1017D000316B00009D6A0000494B0000756C0000F1
:1017E00013B5074B04460C30019098470198054B00
:1017F0009847054B2146072002B0BDE81040184726
:101800009D6A0000296B0000494B00002DE9F34759
:1018100000F110050446244F2846B84780B1DFF890
:101820009480DFF89C90DFF89CA001A92846C0476F
:1018300001301BD11D4B284698471D4B2846984721
:1018400014342046B84770B11A4E1B4FDFF8788029
:1018500001A92046B047013019D1144B20469847C2
:10186000134B2046984702B0BDE8F0872378019ECD
:10187000102B09D1002ED8D0606810B131890F4BE0
:1018800098473046D047D0E73046C847CDE7019D5E
:101890002846FFF7BBFF686810B1B84700236B60AC
:1018A0002846C047D4E700BF716C0000516B0000B0
:1018B000756C0000496C0000ED620000F95A0000F0
:1018C0007D0D000081300000E11700002DE9F3419B
:1018D00000F114080646254B40460F46154698472A
:1018E000002840D0B16A3078214B98470446002840
:1018F0002CD0204B4760984725721F4B214640460D
:101900009847054628B360681C4B01900021984712
:1019100001981B4B0021984701981A4B00219847CA
:1019200004220198184B0021984700210198174B79
:101930009847002304F110006360154B019098470D
:101940000198144B9847144B204698474FF0FF35A9
:1019500005E0B36A1BB10246014630469847284667
:1019600002B0BDE8F0816FF00505F8E7716C00008A
:1019700069170000611300007D6B0000A55B00008B
:10198000A95B0000AF5B0000BD5B0000B35B000023
:10199000516B0000756C0000E117000010B50446A3
:1019A0000068437883B1023B012B0DD9FB232371DF
:1019B00020681B4B0C309847002830D02068194B0A
:1019C000BDE810400C301847174B984723685868FB
:1019D00068B11A7802F0F002102A16D0202A03D13A
:1019E0000023C361114B9847236800225A60206886
:1019F000836A13B10022114698472068836A002B3E
:101A0000D6D0002202219847D2E704225A7003223E
:101A1000227218465C62BDE81040054B184710BDA5
:101A2000256B0000AD6A00000D180000794700002A
:101A3000B913000010B5036893F9082012F1090FDB
:101A4000044606DA027120680D4BBDE810400C30E8
:101A50001847FA22027158680028F4D01B7803F066
:101A6000F003102B07D0202BEDD1A289A168054BE4
:101A700098472071E7E7A289A168034BF8E700BF08
:101A8000AD6A00008D450000AD59000070B50368D7
:101A900093F9082012F1090F044606DA0271206852
:101AA000244BBDE870400C301847F322027158688F
:101AB0000028F4D01A78102A3AD15B78002BEED1A6
:101AC0001D4BFF219847054610B9FF232371E6E718
:101AD00020681A4E1030B04738B12068184B1030CB
:101AE00098472068174B10309847206800232371CF
:101AF0001430B04728B92068134B10211430984790
:101B0000207194F9043063B9216802234B704D6051
:101B100028460E4B984723680D4958680D4B984747
:101B2000BDE70D4B28469847236800225A60B6E768
:101B3000F223CBE7AD6A0000255A0000716C00006B
:101B4000516B0000756C0000316B0000A55B00005C
:101B5000CD180000B95B0000A160000070B50368FB
:101B600093F9082012F1090F044606DA0271206881
:101B70000D4BBDE870400C301847F32202715868D5
:101B80000028F4D01B7803F0F003202BEFD1A268DB
:101B9000936811681BB9054B98472071E7E7938953
:101BA000034D0832A847F8E7AD6A00005947000026
:101BB0002547000000232DE9F041037103685A68AE
:101BC000044682B11B78102B0DD18568094F4FF662
:101BD000FF78454523682E4628BF46465868B1B26F
:101BE000B847AD1BF5D12068034BBDE8F0410C3080
:101BF000184700BFF95A0000AD6A000003460068AC
:101C000090F9082012F1090F03DA1A710C300A4B0F
:101C100018470278102A0DD142780AB1FB22F4E766
:101C2000416829B10121C0E908234170034B1847DD
:101C3000F322EAE7FA22E8E7AD6A0000491500005E
:101C400001684B6830B4BBB1047C82687CB11D680C
:101C50001560002202710A7802F0F002102A15D0F5
:101C6000202A0BD12CB1C2685B8A138006E05D6824
:101C7000EEE71A7C520706D4F323037130BC064BFF
:101C800001F10C001847C2689B8AEEE714B15B8B28
:101C9000C268EAE79B8BFBE7AD6A000070B5264B94
:101CA00004469847254B986870B91946244A41F86C
:101CB0000C0F22F007024AF20845C3E90020C2E9EE
:101CC000001501221D619A602CB1083462071CBF07
:101CD00024F007040834611E4AF20642914229D8D2
:101CE0001B6816485968A14201D21A68FAB9154A08
:101CF00093421FD005681E680660091B102905F174
:101D000008050BD918190C3A41605C60446811460B
:101D100012685668A642FAD3026008600A495B68F6
:101D20000A68D21A0A60094B9847284670BD1846BF
:101D30001346D7E70025F6E7257F0000B400002012
:101D4000D0000020C00000200000002039800000EA
:101D500070B50446B0B10C4BA0F10805984754F893
:101D6000041C0A4B1A461B6858688842FAD344F888
:101D7000083C1560064A13680B441360BDE87040C8
:101D8000044B184770BD00BF257F0000B400002041
:101D9000000000203980000000F108034FF0FF32FE
:101DA000C0E90223436003610023036070470023FE
:101DB0000361704743684B609A688A609A68516013
:101DC00099600368086101330360704730B50C689F
:101DD000631C0AD103695A684A6091608B6059603C
:101DE000036808610133036030BD00F10802134647
:101DF00052681568A542FAD9EDE7D0E901120369E6
:101E00008A6051605968814208BF5A6000220261AD
:101E1000186801381860704770B50C4694421E4629
:101E20009DF81810049B1DD29DF81450AD0707D4DF
:101E30009D7F6D0616D419B1D96E09B91B6F8BB190
:101E400004F2B75525F003018A42A8BF0A4691B2B1
:101E5000054B0022984720B143891B1B3380048126
:101E6000448170BD2146F3E7D93000002DE9F84FD9
:101E700080469A460320284B9DF828900E46174628
:101E800098474FEA890B5FFA8BF5044628B9234B34
:101E9000304698472046BDE8F88F80F80A9033898D
:101EA0004FF00009A3EB0B03C0E900960381142156
:101EB00030461B4B9847064620B12046194B9847A1
:101EC0004C46E7E76368DFF86490D3F804B0B8F8ED
:101ED0001A00C4F80CB0C847ABF80000B8F81C00F2
:101EE000D4F80CB0C847104BABF802005046D4F8F9
:101EF0000C80AD02984705F5A04505F47045C8F87B
:101F0000040045EA0700D4F80C80C847E368A8F845
:101F10000C009E74DE74BDE72D4B00008130000084
:101F200029300000395B0000710D0000650D0000D4
:101F300014312DE9F041154B0546904689B2002237
:101F4000012098470646E8B14468114F688BB847AE
:101F50002080A88BB8470F4B6080C4F80480A86A23
:101F60009847A06045F21000B847A081E88DB847B7
:101F7000002323746374A374E374EA8DAB6AE08175
:101F800013442B633046BDE8F08100BFD930000018
:101F9000650D0000710D00002DE9F04F2DED028B55
:101FA0008DB00446069300231746ADF82E300591F8
:101FB00001B9FEE7037E072B03D0023B022B00F2A0
:101FC000728177B1B4F86630BB4206D2A37F63F06A
:101FD0007F03A3774FF0FF3067E1B4F86830072B39
:101FE000F4D8B4F86230E28ED4F86C805B08934287
:101FF00028BF13460793B4F868300493B8F1000F74
:1020000005D1C246C146454646465AE0C846D8F8BC
:102010000090C246B9F1000FF8D198F80A30B4F830
:102020006A509A0013F0020F02F00401B8F8083069
:10203000079AA2EB030214BF0C200020521A121AB6
:1020400092B2002D47D0BD42294628BF39466D1AAD
:10205000521AADF82E5092B20D46BD4280F0E78084
:10206000002A00F0E280002B00F0DF80A7EB0508DB
:10207000069B9045A8BF9046DB071FFA88F62CD533
:1020800001230293069BDFF848B2CDE900433146B5
:102090000DF12E030320D8478346002800F000816D
:1020A000059B406859193246824B9847824B5846E7
:1020B0009847049B03442E449BB2B6B20493D04687
:1020C000D946069B4FF0000B03F0010308EE103ACF
:1020D000CDF820B083E0A846BFE7784B0122314617
:1020E000032098478346002800F0DA80059B2B44A4
:1020F0004360DBE7079ABB1B9BB2934228BF1346A2
:1021000008EE903A18EE103A13B3BBFA8BF35B0962
:102110000293069BDFF8B881CDE9004318EE901AD0
:102120000DF12E030020C047804658B3059B406840
:10213000991918EE902A5F4B98475F4B4046984795
:10214000049B03449BB2082B049331D9404617E00B
:1021500018EE901A18EE100A584B0122984788B1D1
:10216000059A564B09903244426018EE101A18EE48
:10217000102A18EE100A9847099B8046A0B9184605
:102180004F4B9847A37F63F07F03A377B9F1000F0C
:1021900002D04B4B48469847BBF1000F3FF41AAFB3
:1021A000484B5846984715E71946474B9847C4E7A8
:1021B000E36D002241460092DFF818813344204647
:1021C000C04780460028DDD0BBF1000F2BD0089B14
:1021D000186018EE903A1E44B6B2CDF82080BE4288
:1021E00088D34B46D9464DB1DAF80460DFF8C4B065
:1021F000FEB9BAF808201544AAF80850BDF82E20F8
:10220000A4F86A2043B3304ADAF80400059319466B
:102210009047059BBAF808201B891344AAF8083098
:10222000CAF800901DE08346D3E72E4649E7002315
:10223000D9E732892A44328132685AB9B6F80AC0DD
:102240007068059907932A466044D8477289079BAE
:102250002A4472813668CBE7BAF1000FE0D1C4F8A6
:102260006C90E36DB4F866203B44E365D71B049B98
:10227000A4F86670A4F86830B8F1000F0ED0D8F852
:102280000C0090B1069B13F0020407D185890F4B17
:1022900008209847D8F80C3028439881002004E0A3
:1022A0004FF0000B6EE76FF00C000DB0BDEC028B31
:1022B000BDE8F08FA59400003D320000D930000049
:1022C000813000005D5B000057320000650D0000AA
:1022D000191E00006D1E0000B0F86830072B73B5A2
:1022E00004460D4606D9A37F63F07F03A3774FF022
:1022F000FF3034E0B0F86630C1F34006B100002B87
:10230000F5D000221A4B1046984701460028EAD023
:102310000096E36D174E2A462046B0470028E2D0CB
:10232000E36EF3B9E0660023AA07A4F86A3007D089
:10233000E36D0133E365B4F86630013BA4F8663021
:10234000EB0742BFA37F43F02003A37740680A4B0B
:102350009847B4F868301844A4F86800002002B028
:1023600070BD1A461B68002BFBD11060DBE700BF75
:10237000D93000006D1E00003D3200002DE9F04113
:10238000C46E05464CB127462468002CFBD1FB687F
:1023900098890C4B9847430705D028460A4BBDE85F
:1023A000F04101211847FB6801209E89074B98479F
:1023B000FB6830439881AB7F43F02003AB77204626
:1023C000BDE8F0816B0D0000D9220000650D000012
:1023D000F0B5164B85B00446006D9847144B024685
:1023E0000021204698470546E8B1A37F4668114F73
:1023F00023F00303A37703890093221D21460623BC
:102400000392B847062330820193637A0093A37A3C
:10241000039A21462846084CA047084B284698476F
:10242000002005B0F0BD6FF00100FAE7710D00006B
:10243000311F000019740000715600008130000047
:102440002DE9F04F934B1B68834285B0044648D07A
:10245000B0F86030B0F84C80C56E984528BF9846FB
:10246000837F9A0710D52DB98B4B204605B0BDE868
:10247000F04F1847EB685868884B98472B89A26C37
:102480009B1A18444045EFD8276F7FBB834E05B396
:10249000EB685868B0472B89A26C9B1A18444045DA
:1024A00017D8236F33B3A27F12F0440F22D1E36E0B
:1024B0002BB11968F1B91989E38E99421AD2B4F88F
:1024C0006630BBB1B4F86830072B13D812F0A00FF8
:1024D00010D1E36E0BB9A4F86A30A37F03F07F0339
:1024E000A377002005B0BDE8F08F1F463B68002BA6
:1024F000FBD1CBE72B68E366237E022B0DD0EB6884
:102500001020B3F80CA0664B9847EB684AEA00002D
:102510009881A37F23F00303A377A06ADFF894A137
:10252000D5F80CB0D0475E4BCBF80800E08DD5F85D
:102530000CB09847E28DA36AABF80E0013442363F6
:10254000AB7ADB0704F104090BD5564BD5F80CB078
:10255000494640F2B450984740F00170D047CBF85C
:102560001400B4F93430013304BF0023A386236878
:1025700033B94D4B48469847002833D04368236011
:10258000A36B33B94949EB680968A1635868B04740
:10259000E0636868D5F80CA04368DFF81CB1C0F8A8
:1025A00004A0AAEB030399B243895B1A4381038910
:1025B0005B1A9BB2002103814A468AF810108AF800
:1025C0001110009321460623D8470623AAF81000CD
:1025D0000193637A00936868A37ADFF8E0A04A4623
:1025E0002146D047EB68DFF8D8A05868B0472A8961
:1025F000EB68039283469889D047039A10F003034F
:1026000018BF01231A4402EB0B03226DD21A002AD1
:10261000B8BF2365EB6852469889B5F808A0904783
:1026200010F0030018BF012010EB0A0F2DD000237B
:102630002B60236F13B925672F4614E0EB685868A9
:10264000B047FB6882465868B047AAEB00000028F4
:1026500019DA04F1700ADAF8003033B9DAF8003028
:102660002B60CAF80050E56E11E7DB685868B04788
:10267000EB6883465868B047ABEB00000028EDDA02
:10268000DAF800A0E7E73D60D6E7094B284698470F
:10269000E9E700BF0CA50020D1230000750D000064
:1026A000650D000015640000ED530000F4480120A2
:1026B000395B0000710D00001974000071560000B4
:1026C0006B0D00002DE9F74F824689461746984664
:1026D0000022224BBDF83060BDF834B01421012037
:1026E00098470546002836D0446830461C4EB0470F
:1026F00020805846B04760805046DFF870A0D04731
:1027000060604846D047A06045F21400B0471623E9
:10271000A3736FF02F030026E3732B89A081267427
:102720006674A674E674424600933946DFF840901A
:1027300006232846C847062320824246CDE9006387
:10274000084CFF2339462846A047074B284603B0CC
:10275000BDE8F04F184703B0BDE8F08FD930000056
:10276000650D00007156000081300000710D000001
:1027700019740000026F10B492B1134619461B6819
:10278000002BFBD1C46E0C60C0E91B2390F84620DF
:102790008363013280F84620034B5DF8044B1847F1
:1027A0005DF8044B704700BF412400002DE9F04163
:1027B000056F0446ADB12B68DFF84480036700F174
:1027C0006C0633687BB933682B6035602B680BB9B6
:1027D000A4F86A3094F84630013384F84630002378
:1027E000A363BDE8F081DB685868C047EB68074623
:1027F0005868C047381A0028E5DA3668E1E700BFB4
:10280000750D0000036F10B504460BB3837F5B07A3
:102810001ED4104B9847B4F84C20B4F860309A425C
:1028200088BF5A08E38E98BF5208B2EB430F4FEAB5
:102830004301A4F84E20B8BFA4F84E10B4F84E20BF
:102840000B441344A4F84C30A37F43F00403A37754
:1028500010BD00BFAD270000F0B50446006D134B5E
:1028600085B001389847124B024600212046984710
:102870000546C8B1038946680E4F0093221D2146C4
:1028800006230392B847002306223082CDE90032A6
:102890002146A37A039A084C2846A047074B2846AE
:1028A00005B0BDE8F040184705B0F0BD710D00005F
:1028B000311F0000197400007156000081300000C3
:1028C0002DE9FF41076F054617B9C76E002F48D0A5
:1028D000FB689889244B984710F0010418BF3C8985
:1028E000FB681CBFB4FA84F464095A681F4B84F077
:1028F0000101284698470646002832D0D0F80480C7
:1029000024B31B4BB8F90C401120984724F47C5495
:102910002043A8F80C00338900932A1D2946154C42
:10292000039206233046A0470023A8F81000062291
:10293000CDE90032104CAB7A039A29463046A047C5
:102940000E4B304604B0BDE8F041184778683A892C
:1029500003890B4C9B1A9BB2012208F11401A0477A
:10296000D9E704B0BDE8F0816B0D0000311F000015
:10297000650D0000197400007156000081300000E0
:10298000213300002DE9F047466873689A880446B1
:102990000F46002A2DD11A68426000F11C0100F197
:1029A000080252F8040B43F8040B8A42F9D1174B82
:1029B000012130469847164B30469847154B85B253
:1029C000304698476668DFF84880DFF8489096B947
:1029D000114E2368326894420CBF33603B6021463D
:1029E0000E4B04209847B3885B1BB3802846BDE894
:1029F000F0870025E6E773683046D3F800A0C047AB
:102A0000284485B23046C8475646E0E7590D0000D5
:102A10003D32000081300000D8A40020494B000066
:102A20002DE9F843DFF86880DFF8689005460F4627
:102A300000260024D8F80030214620464BB908B1C2
:102A4000C8470644BE4201DA012CF2DC3046BDE83C
:102A5000F883D5F80CC05A69624509D1D5F810C081
:102A60009A69624504D1B3F80CC0AA88944507D08E
:102A7000013458B193F81FC0C27F944598BF1846DF
:102A80001A68002A18BF19461346D7E71846F7E711
:102A9000D8A400208529000010B50446406908B17B
:102AA000034B98472146034BBDE8104005201847CB
:102AB00081300000494B0000094B70B51868094D82
:102AC000002400B970BDC37F066823B1013BC37702
:102AD00004463046F5E72146A8472046F8E700BF00
:102AE000D8A40020852900002DE9F04F4468237800
:102AF00003F00F03052B85B0054640F08F80A84FEB
:102B0000E088DFF8C492DFF8A4A2B847029060889A
:102B1000B8470390284694F80080C847BAF80430B4
:102B2000CDF8049003440A2B06466DDCDAF80090D9
:102B30004FF0000AB9F1000F75D1DFF890B2042010
:102B4000D847814650B9974B314620469847864230
:102B500064DC0420D847814600285FD01C22002175
:102B6000914B09F104009847032289F81F208F4AEE
:102B70001168C9F80010C2F8009009F10801224656
:102B800004F1140052F804CB41F804CB8242F9D18D
:102B9000DFF818B2BBF804000644ABF80460E28822
:102BA00093060FD4039B99F81E2008F00F00A3EBA7
:102BB0008000029B42F0010200EBC30089F81E2056
:102BC000A9F81C006E687088B847347804F00F04C8
:102BD000A0EB8404F088B847C0F30C006968D9F80A
:102BE0000460C000A4B2002204440A704A708A70D3
:102BF000CA7088801FFA84FECC8001233EBB002A65
:102C000073D1C9F804502FE00146664B204698471F
:102C100020B1BAF8043033440A2B87DD644B2846D0
:102C2000984700249DE0E268D9F8141091420AD137
:102C30002269D9F81810914205D1B9F80C10A28870
:102C4000914200F09280CA46D9F8009072E7776806
:102C5000BC88A0423DD20E60002AD2D0D6888642DF
:102C600051D8A6454FD8156099F81E2012F00104DE
:102C700077D0002BD5D0D9F804205468A288002A38
:102C8000CFD10A68002A36D1B9F81C202568143241
:102C9000A9F81C20214609F1080209F11C0052F88C
:102CA000046B41F8046B8242F9D1424AB9F81C0026
:102CB000414F424E904700226080A271E271A272A1
:102CC000E27220463E4A142190476081D9F80440C0
:102CD0002DE018D0FE88864215D81AB1D288A242BB
:102CE00018BF00233E683A4688E71560D2888242C2
:102CF00018BF0023B8E75068C9888288914290D1F4
:102D000002680146BEE7019B28469847BBF804309D
:102D1000181AABF8040081E7D5F804806FF01301AE
:102D20002846B84729462046B047D8F80050002D1D
:102D3000F2D1DBF80010D9F80020224B894518BFEA
:102D4000CAF8002049464FF0040008BFCBF8002025
:102D50009847019B20469847BBF80430181AABF8F7
:102D60000400204605B0BDE8F08FE088B847C0F306
:102D70000C0000287FF40CAFB9F80E00B847C0F380
:102D80000C0000283FF404AF224609F1080104F1C9
:102D9000140052F804CB41F804CB8242F9D1F7E693
:102DA0006B0D0000212A0000C1940000D8A400206F
:102DB00081300000650D000029300000573200000E
:102DC000A9740000494B00003D3200002D4B00006B
:102DD0002DE9F04F2DED028B8DB08B8C0593436860
:102DE00006930446D8885E4B08EE102A8A46984718
:102DF0002589C0F30C030493143D00F40053089399
:102E0000ABB20293059B143B44BF059B0D3BC3F340
:102E1000CF030793DB009BB2099314260023029A89
:102E20002AB910460DB0BDEC028BBDE8F08F049AB4
:102E300002990A93C2F30C0B089A4A4B42EA0B0B15
:102E4000059A133A8A42D4BF099A029A03924FF024
:102E500014014FF000024FF00200D8BF4BF4005BAA
:102E60009847074640B3069A0A9B416802F114004E
:102E700052F804CB41F804CB8242F9D16268D7F80A
:102E80000490DDF80C80324462606289961B668192
:102E90001E46B8F1000F36D06689464528BF464623
:102EA000B6B20EB92468F4E72F4B052098470346C5
:102EB00028B92E4B384698474FF0FF30B2E70196BD
:102EC000626800920A902A4D022231460320A847E8
:102ED0000A9B20B919460520264B9847E9E7CDE91A
:102EE0000A03254B204698470B9B244A5C61A8EBBC
:102EF00006081A610A99224B38461FFA88F8984743
:102F0000B8F1000FCED15846DFF87CB0D847039B0C
:102F1000A9F8060003F1140080B2D847194BA9F8AC
:102F20000200142189F80A8089F80B8048469847E6
:102F300018EE102ADAF81430A9F80A00394650467B
:102F400098470A4B38469847DDE90223D51AABB2B9
:102F5000079A0293049B13449BB2049333465EE7A3
:102F60006B0D0000D93000002D4B000081300000B7
:102F7000E52F0000494B00004D320000992A000067
:102F800057320000A9740000650D0000074B0022B5
:102F900010B51A70064B1C682CB1606F20B1054B40
:102FA00098470023636710BDE468F5E7DEA40020BE
:102FB000FC4801205D5B000038B5074C23780122F6
:102FC000227003F0FF0533B90448054B2A46294611
:102FD000984700B1257038BDDEA400208D2F000079
:102FE0004993000070B50328049D18D80D4C245C4B
:102FF000BDF81400033424F00304661886424FF031
:1030000000000BDC186005B1254402201A73012270
:1030100058735D6019815981DA81184670BD0020AE
:10302000FCE700BF77A7000030B5D9B1D8B10029BF
:103030008AB205DA43895442A4B2A34201D2FEE720
:103040001446057B43680DB1032D0DD1591A00F1CB
:103050001003994212D34389416013444381038989
:103060001A440281002030BD013D012D06D80029FF
:1030700004DA4589A54201D3591AECE70120F2E7A9
:10308000F8B518B3124E134D0024C389013B9BB20F
:10309000C38143B9437B07689B0708D503699847F9
:1030A0000134E4B20FB92046F8BD3846EDE7037BA2
:1030B000032B03D101460C20A847F1E7013B012B6C
:1030C00002D801460B20F7E7B047E9E70446EAE7F4
:1030D000F1560000494B000003282DE9F0470E4649
:1030E000174601D900241BE03A4B022A1D5C0DD87B
:1030F000002A56D0384B0B20984704460028F1D0C0
:103100000023436006814681036060E0032AE9D121
:10311000DFF8C4800C20C047044620B92F4B9847E5
:103120002046BDE8F0874319133323F0030303352A
:10313000436025F00303C3F5BD650435B542A8BF60
:1031400035464FF00009012345810773C0F8009010
:103150000681C381751B8246002D04DC0123E381B7
:1031600000236373DCE70C20C04728B91B4B98474A
:103170001B4B20469847B5E7ABB240F2EC52934266
:103180008781C0F80090CAF80000038128BF134669
:1031900000F11002426001224381C281ED1A824691
:1031A000DAE7CB1C05F1130023F0030320F0030042
:1031B000184480B20B4B98470446002892D043191C
:1031C000133323F0030343600681468107602773AE
:1031D000C4E700BF77A700002D4B0000B92F000007
:1031E000813000007D58000038B503898B420446C9
:1031F00018D90D46CA1A6389AB4214D3227B4AB947
:10320000AB4207D061680B4B091B2944204689B2A9
:103210009847044620686581258108B1064B984788
:103220000023236038BDED1A238913442381ADB2F6
:103230002468E0E791570000813000000346002237
:10324000D0B2013203B970471B68F9E710B1C389E6
:103250000133C381704710B500B109B9FEE71046CC
:103260000B890489026823449BB20381002AF6D1AA
:10327000016010BD10B5034B9847BDE81040024BEC
:1032800008461847573200004D3200002DE9F84338
:103290000C46054620B119B102890B899A4200D229
:1032A000FEE74FF00008DFF87490474662896E89A8
:1032B00061686868F61BA2EB08029642ACBF96B242
:1032C000B6B2324641443844C8473744638946441D
:1032D0001FFA86F843456B8998BF2468BFB298BF30
:1032E0004FF00008BB4204D12D680DB994B1FEE740
:1032F000002734B1628923899A4202D1236803B13D
:10330000FEE76A892B899A4202D12B6803B1FEE756
:10331000002CCBD10020BDE8F88300BFA5940000AD
:103320002DE9F84388461746054600B9FEE7F1B98E
:10333000FEE76C8953B1A34208D31B1B9BB22D68D7
:103340000FB1002DF5D13046BDE8F883E41AA4B2E0
:10335000BC42696828BF3C46194408EB0600224677
:1033600026443F1BC847B6B2BFB20023E7E7DFF8E9
:1033700008900026E4E700BFA5940000F8B51F4FB1
:103380001F4E3C680546A089B047C0F30F300528A2
:1033900014D93B689889B047020B053A920014345F
:1033A00092B2002340F2B35640F2B457934205D292
:1033B000E15C012903D0022904D0C1B9F8BD013371
:1033C0009BB2F3E7E01841780429F7D1D91C89B200
:1033D0008A42F3D990F802C0C17841EA0C21481E14
:1033E00080B2B04288BF3946E9860433E8E7E11885
:1033F00049780029E2D00B44E2E700BFE0A40020B6
:103400006B0D00002DE9F047C368204E05469889F2
:103410000C46B047C2071AD41D4FDFF88080DFF892
:103420008090D4F80CC078682B89DCF804102289CD
:1034300003440A449A1A002A10DA5B1A002B0ADDA8
:10344000091A89B26868134B2981984703E020461E
:10345000114B984700242C60BDE8F087BCF80C00A5
:10346000B047C30708D5EB680120B3F80CA0C047EC
:10347000EB684AEA00009881D4F800A02046C847CB
:103480005446BAF1000FCCD1E5E700BF6B0D000048
:10349000E0A40020E93100005D5B0000650D000044
:1034A000395B00002DE9F74F754D2B7ADE06044697
:1034B00040F13281B0F860106A68EB68D0E91560BD
:1034C000B71A002F0ADB964202D1C61A002E05DB7E
:1034D000984218D12E68F6898E4214D92E68B4F815
:1034E00062C0F689A4F86060B7B2BC45C4E9152390
:1034F00038BFA4F8626094F8952097BB1AB94FF4CE
:103500008072A4F89420A66C9A1B002A38DC002252
:10351000A4F864202A8A7ABBB4F86020A76D01441D
:103520003A448A4228D1B4F93420002A24DB9E424E
:1035300022D194F84730FF2B1CBF013384F8473069
:1035400094F84730032B12D9B4F84C20E38E13447F
:103550009BB29A4201D2A4F84C30DFF83081494F37
:10356000D3E0002ACFD0002284F89520CBE7F4D115
:10357000454B20469847F0E7002384F84730ECE7B6
:10358000216D591A002976DCA17FA364480741BF49
:1035900021F00401A177B4F84E10A4F84C10B4F94E
:1035A0004000B4F84210237E01EBE001A4F844107F
:1035B000B4F8661092B2A4F864200A44A4F8662015
:1035C000032B4FF00002A4F846200FD9B4F84C208A
:1035D000B4F84E10E38E91429CBF5B43B3FBF2F311
:1035E00013449BB29A4201D2A4F84C30274F254E87
:1035F000DFF8A08033E0DB685868B847226FD368F3
:10360000B2F808A081469889B04710F00303E86833
:1036100018BF01235344A9EB00094B44002B21DCC4
:10362000D4F87090D9F800302367B4F864305BB1F7
:10363000D9F80C309889B047C10742BFB4F864305C
:1036400003F1FF33A4F86430D9F80400C047B4F89C
:103650006830181AA4F868000D4B48469847236F45
:10366000002BC8D1236FB3FA83F35B095B42A386B7
:103670000023E37771E70023A4F864306DE700BF0F
:10368000E0A400206B0D000005280000750D00006F
:10369000395B00003D320000DB68EE685868C047C7
:1036A000E36EB3F808A0DB6881469889B84710F04C
:1036B000030018BF0120A6EB09065044301A002869
:1036C00026DBEB68226D9B1A002B21DCE66E33684B
:1036D000E3660BB9A4F86A30B4F8643053B1F36808
:1036E0009889B847C20742BFB4F8643003F1FF338A
:1036F000A4F86430954B70689847B4F86830181A8D
:10370000A4F86800924B30469847E36E002BC3D173
:10371000A16B002940F0A9802E8A6B68A26A002E56
:1037200000F04D82217E062900F24982D11A01293A
:1037300000F1CD80C3F10100801B1044002800F38C
:10374000C680A86943898B428AB280F2BD80038912
:103750009B1A9BB2002642898A42C0F2B08049423D
:1037600009B27C4B9847A98B6B68A26A6A600B44CC
:103770009B1AAB832B6A5A606968A26A8B1A002B6A
:10378000C0F21782A08D4B1C9B1A1B1A002B00F352
:103790001082914240F05F812B6A6F4E9889AF8B07
:1037A000B04710F0030018BF0120A38D384480B249
:1037B000834228822BD22B6A9889B047C3070CD545
:1037C0002B6A9F893846B047644B00F03E0098470B
:1037D00027F47C572B6A07439F81A38DAB832B6A09
:1037E0009889B047870748BFAB8BA86944BF03F1EE
:1037F000FF33AB83A98B5A4B98472B6AAF8B9889C1
:10380000B04710F0030018BF012038442882636FCE
:1038100043B12B6A9889B047C00764D54C4F606F9D
:1038200000285CD1298AA38D6A684E4F0A445B1A2E
:10383000A262A3852046B847AB6901971A8912B1E5
:103840006B620023AB612B6A9889B047C70705D527
:1038500095F8283043F0200385F82830DFF80CA1D4
:10386000DFF8ECB04FF00009DEE0E36BEA689B1A8A
:10387000002BBFF651AF3C4B1F88B4F9403089B2E2
:10388000C3F3CF007A1A121A16B2002E13FA82F27C
:10389000B8BFC91BB4F94230BCBF09180EB2A3EBC4
:1038A000A303334412B29BB2A4F8423003EBE20309
:1038B000A4F844300023A4F84020A3632CE703813C
:1038C0004681891A006846E7524211B249E79B1ABD
:1038D000002BBEBFA37F43F00203A3774CE703682E
:1038E0006367B8479BE7676FDFF87080DFF8609029
:1038F00068682B8A034437B3D7F80CC03989DCF8E1
:1039000004201144591A002932DA9B1A002B1ADDBF
:103910002B6A121AAA839889B047830748BFAB8BDA
:10392000A86944BF03F1FF33AB83A98B0C4B9847C5
:103930002B6AB5F81C809889B04710F0030018BFB7
:1039400001204044288267676CE700BF3D320000D9
:10395000395B0000293000006B0D0000650D000090
:10396000E9310000C15A0000F4480120573200003C
:10397000BCF80C00B047C10717D52B6A9889B0472F
:10398000820712D42B6A0120B3F80CA0C0472B6A1F
:103990004AEA0000988180B2B5F81CA0B04710F048
:1039A000030018BF012050442882D7F800A03846F1
:1039B000C84757469CE76B608889B7F80880B047CE
:1039C00010F00300A36AFA6818BF012040441844AD
:1039D000A0629089B7F80880B04710F00300A38D6B
:1039E00018BF01204044181AA085019B2046984723
:1039F00079680B8923B1686A28B3D047C7F8049067
:103A0000FB689889B047C0070AD595F8283043F07D
:103A1000200385F82830237E042B04BF0723237658
:103A20003B6863673846D847676F27B1F968A26A71
:103A30004B689342BFD0A37FD90706D523F001037B
:103A400043F0020303E06962D8E743F00103A37780
:103A500003B0BDE8F08F604B20469847666F26B9EB
:103A60005E485F4B98476067F2E76B68002703F199
:103A7000FF3C03F1010EF0684168994214D1AA8B12
:103A800033899A42E4D95548554B98470028DFD0EE
:103A900047B138603146534B03B0BDE8F04F18478B
:103AA0001646E8E76067F5E74FB95A1A002A28DAA0
:103AB0004A484B4B98470028CAD06067EAE7FA6843
:103AC0005268ACEB0202002A1BDBAEEB0102002ABB
:103AD00017DC4248424B984704460028B8D0FB68A0
:103AE00069685A683B8913445B1A002B05DD891A03
:103AF00089B278683C4B398198473C603146204612
:103B0000C9E732683746002ACAD15B1A002B9FDD0D
:103B10008089364FB847C2079AD43048304B98470F
:103B20003060002894D0F36869685A683389134478
:103B30005B1A002B05DD891A89B270682A4B318126
:103B400098476B682A8AA16A1A44A38D0B449A424B
:103B50007FF67EAF3368DB689889B847C30711D515
:103B60003368DB68B3F80C804046B847204B00F060
:103B70003E009847336828F47C58DB6848EA000820
:103B8000A3F80C80A18D6A683368891AA26A586804
:103B9000114489B21981144B984733681C89DB683A
:103BA0009889B84710F0030018BF012020442882EC
:103BB0004EE7094B204603B0BDE8F04F1847991A6D
:103BC000002906DB01339B1AA28D9B1A002B7FF77D
:103BD0003FAFA37F34E700BFD1230000F4A400204F
:103BE000715B000005340000E93100006B0D00003E
:103BF000650D00002DE9F04F4368974D1A78DFF806
:103C00008C920C4602F00F0103EB8103890085B012
:103C1000494206462B60C847002840F0EC803389B3
:103C2000132B40F2E8808D4F8D4B38682146984722
:103C3000002840F0E0803B6803F0F003E02B00F048
:103C4000DA80DFF8308233890093864C06233A46C7
:103C500041463046A047002840F0CD802B68824C7A
:103C60009889A047000BC0EB8030810009B2304634
:103C7000C8478246002840F0BE80D5F80090DFF8A3
:103C800010B2B9F80000A047A9F80000D5F80090DC
:103C9000B9F80200A047A9F80200D5F80090D9F8B9
:103CA0000400D847C9F80400D5F800906860D9F836
:103CB0000800D847C9F80800D5F80090E860B9F8BE
:103CC0000E00A0472B68A9F80E009889DFF8A09194
:103CD000A04700F03F02C3B22A7210F003003289FD
:103CE000039218BF0120104482B20292D9F800005A
:103CF0002A82D8F80020D5F800C0D7F800E0114695
:103D0000044614B9594A10687CE0B4F81CB0BCF8F9
:103D10000020934538D1B4F81AB0BCF8022093457E
:103D200032D162688A422FD1226872452CD1BAF111
:103D3000000F05D0E268CAF80C204D4AE06014601C
:103D4000002203996A611B07C5E908C2A983AE6115
:103D500085F8282003D5737B43F001037373A36FA9
:103D6000002B40F0E9802A7AEC62570700F1FC80D2
:103D70009607A37F40F12781227E023A012A40F272
:103D8000228143F00203FFE0A246E468B9E7BCF8F1
:103D90000020B0F81CA0924533D1BCF80220448B1F
:103DA00094422ED1426891422BD10268964528D187
:103DB0005A0720D49F0711D56F68836AFB1A12D463
:103DC000828D9B1A002B0EDC02992A4B234ACDE9E7
:103DD000004A3944E868284CA0470CE0D90742BFA4
:103DE000264B1B684362029B2BB1837F43F0020387
:103DF0008377234B9847234B304605B0BDE8F04FFF
:103E00001847C0680028C2D11F4A1468A246BAF1F8
:103E1000000F0FD1BCF80C00134B98474207EAD4AF
:103E20002B68288A1A8801925B8800936968114B75
:103E30000A4AE9E2BCF802B0BAF81A205A4507D19A
:103E4000DAF80020964500F0C782002A00F0C4820C
:103E50005046DAF80CA0DAE7E0A40020B010012008
:103E6000AF7A0000197400006B0D000004490120B6
:103E7000FC480120B4100120C5260000F4480120B0
:103E80004124000081300000F0480120293000006A
:103E9000750D00009B07AED59AF81900984B98470E
:103EA00083460028A7D03B6803602A68BAF81A3016
:103EB0004383D8F8003051784360137843EA0123F4
:103EC0008383032303766B68591C81620163013B82
:103ED000D2894365DAF810300361DAF81430A0F8BB
:103EE0006020A0F86220A0F84E2043619AF80830C4
:103EF00023F073030372D9F80030C360814BC9F813
:103F000000009847804B01221A7058467F4B984713
:103F10007F4BBBF836000BF1040198477D4BABF8A3
:103F2000360012215846984720B17B4B214658460F
:103F3000984760E758465CE7784B204698470A3038
:103F400007D0A36F002B3FF40EAF2B8A002B3FF45A
:103F50000AAFA8690024EC626C6210B1704B9847FC
:103F6000AC6105B0BDE8F08F237E022B0ED1226D2F
:103F7000EB689A4212D195F8283043F0080385F88F
:103F80002830A37F23F00103A37707E06B68A26AC0
:103F90009B1A03D4A28D9B1A002BECDD95F82830D8
:103FA0001F0740F1A381D4F88C301BB16FF00A01D8
:103FB0002069984721465B485B4B98475B4B2146FD
:103FC00001209847C5E7D8065EBF594B1B6863625E
:103FD000002384F8963020464C4B9847237E023BC2
:103FE000072BDBD8DFE813F008006F00E800EC00D7
:103FF0003401E800520170012B7A03F01203122BF6
:104000004FD1236FDB6858684A4B9847EB68013003
:10401000984246D1B4F86630A0640133A4F8663003
:104020006B68E08E5A1CA26222632A68013BD28927
:1040300063650423E118A4F86020A4F862202376C5
:10404000334B984700EB80035B00A4F84E30B4F884
:104050004C30E086012B08BF4000B4F8683008BF40
:1040600080B2A4F84C00206F013BA4F868300368CC
:104070002367314B9847236F3BB94FF6FF73A386F5
:10408000D4F8843033B9A37F7BE60023A38684F879
:104090004630F5E720690022214698470A30F2D1E0
:1040A00057E72B7AD9067FF579AF2B68288A1A88CB
:1040B000019269685B8800930144204B204AE868BC
:1040C000204EB0476AE72B7ADA0668D5A36CE86819
:1040D000DB43C34258D4236DC31A002B54DC0423A2
:1040E000237663691BB9184B2046984731E720694E
:1040F00000222146984748B30A303FF42AAFF2E73E
:1041000011630000A5100000004901207D3300006C
:1041100015640000D922000041620000E96000003F
:1041200081300000FC480120D15E0000494B0000B6
:10413000F4480120750D0000395B0000B410012027
:10414000B0100120C5260000ED620000954BB4F8C8
:104150004C6020469847B4F8643013B1013BA4F892
:104160006430E38E012E04BF5B009BB2A4F84C3098
:1041700095F828309E067FF511AFA37F43F0020328
:10418000A3770723237609E72B682E8A1A880192E2
:1041900069685B880093844A844B314490E79F07A9
:1041A0007FF5FCAEA36A6A68013B93427FF4F6AEEA
:1041B0007F4B20469847F1E67A4B20469847D7E751
:1041C000784B2046984795F8283013F0200F2B7A2B
:1041D00034D013F0100FA37F43F002032BD0216DD6
:1041E000EA68914227D1A3772046724B9847724ADA
:1041F00013689C4202D1E36813600DE06F4A00210E
:10420000136013B90029F7D106E0D86884420FD1B2
:1042100001B11360E268DA60694B01221A700A2367
:104220002376684B1A68E2601C60674B9847B5E6D6
:1042300001210346E5E7A3770823A3E7D8067FF526
:10424000ADAE226DEB689A427FF4A8AE062399E7E3
:10425000544B2046984795F8283099067FF59EAE36
:10426000A37F43F00203A3772046524B9847524A5C
:1042700013689C42BFD0514A00211360002BC1D06B
:10428000D8688442C4D001210346F7E7454B204655
:1042900098472B7ADA067FF581AE226DEB689A4259
:1042A0007FF47CAE434B20469847434A13689C42B8
:1042B000A1D0424A00211360002BA3D0D8688442C9
:1042C000A6D001210346F7E7364B204698472B7AC4
:1042D000DB067FF563AEEB68226D9A4202BF95F86C
:1042E000283043F0100385F8283057E6DE060BD55A
:1042F000A37FD8063FF55EAED4F88C30002B3FF498
:1043000059AE6FF00B0153E6B4F8642092B96A6AB3
:10431000CAB995F82830990606D5A36F002B2ED080
:104320005A7B42F020025A730023EB622046274B4F
:1043300098470EE6E36F002BE9D0206921469847A5
:104340000A30E4D105E6A37F13F0100303D0204B1D
:1043500010469847C7E6D4F880605EB120692146D0
:10436000B04710F10A0F3FF4F4AD0028D1D06B6ACA
:10437000A367CEE7334630462146164EF0E7A38DBD
:10438000D4F8806041F2D06293421CBF0133A38510
:10439000002EC9D0002320691A462146B0470A30B2
:1043A000C2D1D6E5A5340000B0100120B410012020
:1043B000AD270000C95B0000FC480120EC4801204B
:1043C0000049012004490120A510000041240000FB
:1043D00081300000B960000038B1DAF80C20C2600A
:1043E0000A4ACAF80C40C2F800A05A073FF503ADCC
:1043F00013F010043FF44EADBCF800306868044A76
:104400000299CDE900B3034B0144E3E4F0480120F5
:10441000B0100120B4100120704700002DE9F04FCA
:10442000D0F8049003898A4699F8001001F00F0132
:104430008A1CB3EB820F85B0054605DB89004A4B29
:1044400049429847044628B1484B284605B0BDE884
:10445000F04F1847DFF828B1454BDBF80000D5F8DE
:10446000048051469847434B0646B8F800009847E9
:10447000404B0746B8F8020098473F4BDBF8001066
:10448000D3F800E03D4B0390D3F800C0A346734639
:104490003BBB1CB9DAF804309942D5D1B8F80630E4
:1044A00053B12B890093364A3449DFF8DC8011235D
:1044B0002846C0470028C7D1DFF8AC806FF007015D
:1044C0002846C0470028BFD1BCB1A669002EBBD08A
:1044D00000972A4BE0692A462146B04705B0BDE85F
:1044E000F08F5A8A0398824204D11A68D6B90AB367
:1044F00091421FD09B46DB68CAE7002EA4D1204B17
:104500001B6803F0F003E02B9ED099F8001001F037
:104510000F01023189002846C0471A4B0321284663
:10452000984791E7914205D022B1DAF808004A4055
:104530000242DFD124B91A7C12F0040F08BF1C46D6
:104540009A8ABA42D6D15A680AB16245D2D1BBF131
:10455000000F06D0DA68CBF80C20074AC3F80CE04D
:1045600013601C469AE700BF29300000813000002C
:10457000AF7A00006B0D000010A50020B4100120E0
:10458000B01001204D0D000019740000F0B51F4F50
:104590003D6800232C46C4B901B10968016072B9B5
:1045A0001B4E32884FF480414FF6FF7C62451ABFA4
:1045B000013292B24FF440422C46DCB93280428242
:1045C0000BB9C5603860002010E084420FD0668AC5
:1045D00096420DD1D4F800C0BCF1000F04D019B13F
:1045E0000E680EB1B44503D16FF00700F0BD012392
:1045F000E468D0E7B4F812E0964505D1013989B2F4
:104600000029D3D13280EFE7E468D6E710A5002077
:10461000040000202DE9F04F904687B0428ADDF873
:10462000409006460F469A46002A42D0354B082154
:1046300038469847002846D13C46DFF8E0B0708AFB
:104640006568D84728805046D8473268688000237C
:10465000AB71EB715B46002A43D109F1040120895B
:1046600005919847A880337C059913F0010F0ED16E
:1046700023890093DFF8A8A0112342462046D047A3
:104680004FF6FF73002818BF03460599EB801123EE
:104690000193737A1C4D0093CDF80890B37A42468B
:1046A0002046A847BC42054609D0184B20469847EB
:1046B00005E0174B0146984705460028B6D0284626
:1046C00007B0BDE8F08F134B002208210120984766
:1046D0000446A0B13B89002BAFD00F4B3946984719
:1046E000ABE7D9F804108A4207D0BC4202D0074B8E
:1046F000204698476FF00505E1E73146AFE74FF0F8
:10470000FF35DCE7293000008555000081300000CE
:104710008D450000D930000075320000650D0000A5
:104720001974000030B587B00546094C0392104655
:10473000CDE90431A04740B10090DDE9032305999C
:10474000044C2846A04707B030BD6FF00300FAE7DD
:10475000ED5300001546000010B4044C838A024655
:10476000A44604325DF8044B604700BF25470000B3
:10477000C0E9061270470000094A136883420146E7
:104780000BD1C3681360074B00201847DA681AB1D1
:104790008A4204BFCA68DA60DB68002BF6D1F2E710
:1047A00010A50020494B000010B5064B002098478B
:1047B000044628B1044B202200219847FF23A3720E
:1047C000204610BD2D4B0000C1940000034BDA6958
:1047D00002F47C52DA6101221A747047001400401E
:1047E000FEE7000018491948814210B50AD0184B5D
:1047F000DA1C121A22F00302C41EA34238BF0022A0
:10480000144B9847144B1548DA1C121AC11E22F09B
:104810000302994288BF0022114B00219847114A98
:10482000114B22F07F029A60D3F8882042F4700284
:10483000C3F88820BFF34F8FBFF36F8F0B4B9847A0
:104840000B4B9847FEE700BFACAB00000000002018
:104850007C000020A5940000AC63012080000020B3
:10486000C19400000000000000ED00E03D94000055
:10487000B94A000030B54B1CC5B2184B00F01F04FC
:104880004FEA50104FEAC010034407D1234493F875
:10489000402002F0FE0283F8402030BD181903EBDF
:1048A000540390F8402002F0FE0242F0010280F82A
:1048B000402093F8302015F0010FC9B219BF02F063
:1048C0000F0242EA011101F00F0102F0F00214BFE1
:1048D000C9B2114383F83010DFE700BF0080004108
:1048E00010B5054C05493920A04723460449BDE8C9
:1048F00010403820184700BF7548000003003900F9
:1049000003003800064B4022C3F8DC204322C3F8E2
:104910008C20044A936943F400739361704700BF8D
:10492000001C00400008004010B5054B0549064832
:104930009847064B00229847BDE81040044B1847A3
:10494000054900000020014114A50020090F0000C6
:10495000E148000010B51149114C4B20A047114906
:104960004C20A04710490D20A04710490C20A0471B
:104970000F495420A0470F490F20A0470E4912208D
:10498000A0470E491320A0470D490E20A0472346FB
:104990000C49BDE810401120184700BF0B004B0028
:1049A000754800000B004C000B000D000B000C00C4
:1049B0000B0054000B000F000B0012000B00130043
:1049C0000B000E000B001100044B1A6942F48042E8
:1049D0001A61DA6942F00402DA61704700080040A7
:1049E00010B5054B054906489847064B9847BDE862
:1049F0001040054B184700BFC9490000000800429D
:104A000020A500206D4B00005549000010B50D4B4E
:104A100098470D4B4FF48022C3F81821C3F80821A2
:104A20004FF08042C3F82821084AC3F828214FF0EC
:104A3000FF31074B52209847064B9847BDE810407E
:104A4000054B1847D569000000800041040000C0F4
:104A50007548000029490000E14900002DE9F041B6
:104A60000E4F0F4E0F4D104C102239463046A847BE
:104A700001460E48A04710223946301DA84701467E
:104A80000B48A047394606F108001022A8472346E4
:104A90000146BDE8F0410748184700BF3CA500208B
:104AA00010490120F17B0000D19400007BA7000099
:104AB0008DA700009FA7000008B5044B9847044B42
:104AC00004489847044B9847FEE700BF1D4D00007F
:104AD000DD950000B1A700001D760000F0B5104B79
:104AE000104C114923F0030304F11A000D22002693
:104AF00041F8046B34F802CB0025AFB2BC4505D8B1
:104B0000013A92B20230002AF2D1F0BD51F8047C91
:104B10001F60078841F8043C01353B44EDE700BFC6
:104B200083A50020CEA700004CA500200C2800D9AA
:104B3000FEE7044A52F8203013B1196842F82010F9
:104B4000184670474CA5002029B1034B53F820208C
:104B50000A6043F8201070474CA50020436903B158
:104B600018477047836903B11847704770B50D4601
:104B7000044610B1081E18BF01200549054B31221B
:104B8000984729462046044BBDE87040184700BFAF
:104B900002A80000A97A0000B176000010B5044612
:104BA0000038054B054918BF01204522984720468B
:104BB000034BBDE810401847A97A000002A8000086
:104BC0006177000070B50D461646044618B169B10C
:104BD000101E18BF01200649064B5722984732463F
:104BE00029462046044BBDE8704018470846F2E7C6
:104BF00002A80000A97A00007177000070B5044691
:104C000000380D4616460749074B4FF0610218BFA2
:104C100001209847324629462046044BBDE87040A3
:104C2000184700BF02A80000A97A00006D780000B4
:104C300010B504460038054B054918BF01206B220A
:104C400098472046034BBDE810401847A97A00005A
:104C500002A800005579000070B5054600380E46E0
:104C6000144618BF01200C490C4B8922984726B1E5
:104C7000012E0DD06FF00C0070BD094A6C61002C44
:104C800008BF224631462846064BBDE8704018470B
:104C9000054AAC61002CF3E702A80000A97A0000E5
:104CA0005D4B0000A9790000654B000070B50E4611
:104CB0001546044610B1101E18BF01200549064BC9
:104CC0009B2298472A4631462046044BBDE8704057
:104CD000184700BF02A80000A97A0000D17900009F
:104CE0002DE9F0410E4617461D46044610B1181E28
:104CF00018BF01200649074BB82298472046064CAA
:104D00002B463A463146A446BDE8F041604700BF15
:104D100002A80000A97A0000117A000010B5044B27
:104D20009847044B9847BDE81040034B184700BF15
:104D30000D4A00002D0E0000B50F000070B51426BE
:104D4000074C46430546A05918B1064B9847002327
:104D5000A351142000FB05440023A37470BD00BFC1
:104D6000E40F0120813000002DE9F84F00220A23D2
:104D70000E463049044692469146904618469E4655
:104D80009C460A2891F812B01CD1BBF1000F1CD12F
:104D900050B201320A2A01F11401F2D1012E46D19A
:104DA0000A2831D0C6B22CB122492268142303FB51
:104DB00006135A601F4A142303FB06250023EB74D5
:104DC00070B208E0BBF1000FE3D034B127684D6842
:104DD000AF4202D150B2BDE8F88FBBF1010FCF7CDA
:104DE0000CD10D6825B15745D3D353B2BA46D0E79D
:104DF0004745CED34FFA82FCB846CAE74F4524BF99
:104E00004FFA82FEB946C4E7BEF10A0F05D05FFA39
:104E10008EF6094B30469847C5E7BCF10A0F02D021
:104E20005FFA8CF6F5E70A2B01D0DEB2F1E74FF01E
:104E3000FF30D0E7E40F01203D4D000030B44C6856
:104E40001D68C4F802509B88E3801368A3609388B0
:104E5000A3810823A3730023E37330BC836918473D
:104E6000F8B50E4C0E4E00250227A27C5AB1E37C09
:104E70000133DBB2EF2BE37403D8012A09D1012BF4
:104E800001D92846B04701350A2D04F11404ECD1AC
:104E9000F8BD032A08BFA774F5E700BFE40F01209F
:104EA0003D4D00002DE9F041234B05460F46002201
:104EB0002C21032098470646002839D044681F4B10
:104EC00001209847E082D5F82730A361B5F82B3050
:104ED000A3831B4B1A689B88E3841A4BC4F82220D7
:104EE0001A689B88C4F80220E380D5F82730A360B5
:104EF000B5F82B30A3816B68C4F81E303B68A36201
:104F000000232374E3740122062304216175627473
:104F100023750822E373A274AB69A2733146284655
:104F20009847094B0446304698472046BDE8F08133
:104F30004FF0FF34F9E700BFD9300000650D0000E5
:104F400024A800001DA80000813000002DE9F041D8
:104F5000DFF84C80142404FB028402EB8205A37C5E
:104F6000022B06460F464FEA850509D1E37CE32B69
:104F700006D9291D084B4144984708B90323A37457
:104F8000064C0C3508EB050306F12702394630467E
:104F9000A446BDE8F0416047A54E00003D4E00002C
:104FA000E40F01202DE9F041884606460146364BC4
:104FB000D8F800001546984700284ED1D8F80030A0
:104FC00003F0F002E02A48D0002B46D02F4B0121FD
:104FD00040469847041E43DB2D4F142303FB047304
:104FE0009A7C42B901229A742A4B4146304698472E
:104FF0003DB9BDE8F081012AF6D0002DF4D04FF084
:10500000FF30142303FB0472927C012A0ED90C207A
:1050100013FB040387F8C8401F4C3B4406F12702EA
:1050200029463046A446BDE8F0416047E1D12B4611
:105030001A7B012A16D11B68002BF9D1174B284681
:1050400098472E4614236343F85808B1144B9847E9
:1050500014235C4300203E51CBE76FF00D00C8E7FE
:105060002046C6E719890F4B0022032098470646C1
:1050700038B10D4B294698470028E3D0084B3046FD
:1050800098474FF0FF30B4E7AF7A0000694D000059
:10509000E40F0120A54E00003D4E00004D320000FF
:1050A00081300000D93000008D320000F7B50E4687
:1050B00004463A4B1021304615469847002867D1E0
:1050C0002868374B2146984700285FD12B6803F0AA
:1050D000F002E02A1BD101238DF800305E238DF809
:1050E00002306B788DF8010003F07F038DF80330F8
:1050F000AB788DF80430EB788DF805306B4604F111
:10510000270220463146274CA04703B0F0BD626815
:10511000A1685A400A4209D09BB24FF6A962934255
:1051200004D0E36804F10C05002B34D01E4890F83D
:10513000C820142303FB0203997C01290AD929689A
:105140005B68994206D1194B3146204603B0BDE851
:10515000F0401847144900238F7C012F5FFA83FC2D
:1051600007D94F682A68BA4203D180F8C8C062469E
:10517000E9E701330A2B01F11401EDD10C4B324662
:105180002946204603B0BDE8F0401847094BB6E772
:105190006FF00100B9E76FF00300B6E729300000B7
:1051A000AF7A00003D4E0000E40F01204D4F00009B
:1051B000A54F00002AA800002DE9F04F4789102FC5
:1051C00085B006460D4616D94468A378B4F80E801B
:1051D000D8070AD5012B12D1E37833B923795E2B96
:1051E00003D1737B43F010037373B8F1080F11D030
:1051F000B8F5C16F21D05B4B3046984719E05A494A
:105200005A4B0622A01C98470028EED1737B43F02E
:105210000803E9E795F82D309906ECD5544B6FF06B
:105220000F01304698470028E5D1524B29463046B9
:105230009847002005B0BDE8F08F95F82D309A060C
:10524000D9D52B2FDFF81C9102D83046C847F0E79C
:10525000238AB3F5807FF8D1237D062BF5D1637DBA
:10526000042BF2D1638A082BEFD16F68D4F81E00AB
:10527000A36A039004F11808002F71D0DB1B5F4272
:105280005F41C7F10203DBB2019305F1270A002851
:1052900038D0394A29469047834698BB039A02F092
:1052A000F002E02A2ED0019B03A81946334B984701
:1052B000002827DB324B142202FB00FC03EB0C011D
:1052C0004FF0020E81F812E04FF00C0E8D6012FBD1
:1052D00000E2A069985003EB020EB8F80420AEF883
:1052E000042081F813B053F80C1059B143F80CB0F6
:1052F0005246DFF894B0019143462846D8470199B9
:105300000846C847E38AB3F5807F9ED1002F9CD022
:105310001C4B02209847D4F81E30E082A3626B68D1
:10532000C4F81E30A369C4F82230B8F80430E3840E
:10533000A369C4F80230B8F80430E380D5F8273008
:10534000A361BAF80430A8F80430D5F82730A36078
:10535000BAF80430A381AB6931462846984774E710
:10536000022391E7813000002AA800008594000004
:105370002930000029540000AF7A0000694D000078
:10538000E40F0120650D00003D4E000070B50D4694
:105390001646044610B1081E18BF01200549064BE9
:1053A000342298472368324629462046BDE870409B
:1053B000184700BF36A80000A97A000070B50D4656
:1053C0001646044610B1081E18BF01200549064BB9
:1053D0003D2298476368324629462046BDE8704022
:1053E000184700BF36A80000A97A00000C4A0346FF
:1053F000106848B90B4B1B682BB193F82D2012F0A5
:10540000010F18BF1846704790F82D20D20705D518
:1054100041681A684A4081680A42F4D00068E8E7A7
:10542000846301208C6301202DE9F84F47683D78A3
:105430002B09042B0446884605D0464B2046984746
:105440000020BDE8F88F444B7888984705F00F0599
:105450006389AD00AB420646EFD323898342ECD388
:105460003E4B2946384698470028E6D13C4B3D4DF7
:10547000DFF808A1DFF808B13146204698473B69BC
:105480002B60FB686B6046464FF0010996F82D30A3
:10549000DB0704D4B9F1000F31D1366831E073680D
:1054A000002BF7D02868834203D03146D04700282C
:1054B000F0D06868DFF8C4904146C8470028BCD1E6
:1054C0006B6803F0F003E02BB7D0002EB5D0FB885B
:1054D00023F0C00333B12046234B984704460028ED
:1054E000AED047687B7A062BC5E902871BD0112B0B
:1054F0000FD0012B1BD11D4B414620460CE0DBF8A1
:105500000060464508BF36684FF00009002EBDD147
:10551000CFE7174B4146204698470023C5E90233A1
:10552000C5E900338CE7134B41462046F4E7286871
:105530004146C84748B92B6803F0F003E02B04D07C
:105540000D4B6760022120469847024B2046984742
:10555000E3E700BF813000006B0D0000A97400007C
:10556000E9310000B0100120E92A0000090C000018
:105570001D440000F53B00004D0D0000AF7A000017
:10558000846301202DE9F04F85B006469DF838B0C0
:105590009DF83C90DDF8408001911C461746002A9A
:1055A00050D02F4B142198478246002855D175685A
:1055B0002C7285F809903B6885F801B045224FEAC6
:1055C0000B2B4BEA020B44EA09242A705C4414FAC0
:1055D00083F42B61DFF890B0308904EB1344D84793
:1055E00085F806A085F807A0DFF880A0688004444D
:1055F000BAF81000D847BAF81020A8800132AAF8EB
:105600001020019A03190AB112680AB9D8F80420C7
:10561000EA6013FA82F303EB12439AB202EB1343EC
:1056200003EB1343DB436B81B8F824307BB1328941
:105630009A420CD90B4B3A4641463046984705B042
:10564000BDE8F08F43681B69039303AFECE7D8F81C
:1056500014303A4631464046F0E76FF00100EEE77D
:1056600029300000D12D0000650D0000B010012090
:1056700030B589B005460C4C05921046CDE906318F
:10568000A04770B102909DF8340001909DF8300061
:105690000090DDE905230799044C2846A04709B08E
:1056A00030BD6FF00300FAE7ED53000085550000B0
:1056B0000C4B0D4823F003034FF460521A60002294
:1056C0001A7103F56052426003F540524FF03821E1
:1056D000C2F8001801210360836082F80418034BAC
:1056E0000C301847D7100120C41001203D6A00007B
:1056F00070B50446002841D0214D2B6883423DD827
:105700006B6883423AD91F4B002105F10C00984782
:10571000002304F8043CAB6834F8080CA4F1080238
:1057200093422B6888BFAA6019188A420FD00E795D
:105730006EB96E68B1420AD0AE68B142195A24F807
:10574000081C195A08BFAA601944D01A488034F8B6
:10575000061C581882420CD0067956B9AE68B2427F
:1057600034F8082C5A5234F8082C08BFA8601344A7
:105770005980BDE870400448044B184770BD00BF15
:10578000C4100120CD6A0000D0100120AD6A0000D5
:105790002DE9F04103314FF6FC740C400B2C05460B
:1057A00004D9B4F5605F02D900253EE00C242F4FE8
:1057B0003B68AB4239D87A68AA4236D935F8088CAA
:1057C000A5F10806F61AB6B2A8F10808A8EB060873
:1057D0001FFA88F8A045E7D327D0254B002107F111
:1057E0000C0098473B6835F8081C58180279FAB93C
:1057F00006F108021444BA6833F801C0A1B213FAE2
:1058000084F482424FF00002227123F801C06680C6
:1058100025F8081C5A5A08BFBC60B2F5605F01D079
:10582000134459801348144B98472846BDE8F0812B
:1058300004F1140292B29045F4D306F10802B8685C
:105840001444A2B213FA84F4A0424FF00000207175
:105850009952668025F8082C995A88BFBC60B1F52A
:10586000605F1CBF5B185A80DCE700BFC4100120DA
:10587000CD6A0000D0100120AD6A00002DE9F04192
:10588000002850D003304FF6FC7505400B2D04D98D
:10589000B5F5605F02D9002045E00C25274E284B66
:1058A000002106F10C009847B2683168531A9BB288
:1058B000C5F5605E6FF00708734503DB2148224B96
:1058C0009847E8E7CC18C85A94F804C0BCF1000F18
:1058D00031D1A8EB03070744AF422CD305F1140ED6
:1058E0001FFA8EFE774520D308351D44AFB211FA5A
:1058F00085F585F804C0C8536B8001232780237188
:10590000CB5BB3F5605F01D00B445F80A24205D151
:105910007368107908B193420AD1B26009480A4B02
:10592000984704F10800BDE8F08101232371EDE7F9
:1059300012880A44EDE70346BEE700BFC410012009
:10594000CD6A0000D0100120AD6A00006FF00900A0
:1059500070470000F0B5124C23884FF480404FF69A
:10596000FF76B34218BF01330E4D14BF9BB24FF404
:105970004043042255F8041B096831B9013A12F07A
:10598000FF02F7D12380184607E04F8B9F4205D1D5
:10599000013880B20028E4D12380F0BDC968ECE76B
:1059A00008000020B4A8000070470000F8B5037E8E
:1059B00004460D4603B1FEE71AB9164B9847024656
:1059C00008B31548002150F8043B1B687BB901312E
:1059D0000429F8D115B12B6803B123600F4B628302
:1059E0001A68E2601C600E4B98470020F8BD5E8B81
:1059F000964206D11F684FB145B12E6836B1B74205
:105A000004D0DB68E2E76FF00100EFE76FF007001A
:105A1000ECE700BF55590000B4A80000E848012099
:105A2000A5100000F8B5077E044607B1FEE71F4B3E
:105A300002209847054628B32369628B036101233E
:105A400003764283637E4376237A194E43F0020342
:105A50000372A37A8372637A43722368036032B15C
:105A60003368A34210D1E36833600023E360114B35
:105A7000214601209847104B6B61B368EB600F4BD8
:105A8000B56098472846F8BD73601BB9002FECD06D
:105A90007360EAE7D968A14204D107B17360E26894
:105AA000DA60E2E701270B46EFE700BF2D4B00006D
:105AB000E8480120494B00004D590000A5100000A6
:105AC0000246F0B5016B858DD78E846A6B1A40F65D
:105AD0006836B74203EB040094BFC31B831B002B43
